{
  "transactions": [
    {
      "hash": "0xdcee852ac71c8097994147898b191c8b27feaa5fb8c925e85d5cb2a8aa862e18",
      "transactionType": "CALL",
      "contractName": null,
      "contractAddress": "0xffa18ca502ce2768b082bb5a41157bd9b7f24ba2",
      "function": "safeMint(address,string)",
      "arguments": [
        "0xE297Ee702ccFE5D0eBd68d5618aA08E40Cc0DcB3",
        "\"https://i.imgur.com/90D5G01.jpg\""
      ],
      "transaction": {
        "from": "0xc5a5f537d8861143efa4dd1585b44a90c3de1953",
        "to": "0xffa18ca502ce2768b082bb5a41157bd9b7f24ba2",
        "gas": "0x26312",
        "value": "0x0",
        "input": "0xd204c45e000000000000000000000000e297ee702ccfe5d0ebd68d5618aa08e40cc0dcb30000000000000000000000000000000000000000000000000000000000000040000000000000000000000000000000000000000000000000000000000000001f68747470733a2f2f692e696d6775722e636f6d2f393044354730312e6a706700",
        "nonce": "0x38",
        "chainId": "0x13882"
      },
      "additionalContracts": [],
      "isFixedGasLimit": false
    },
    {
      "hash": "0xaa0d9f5818b8c5bb73e8a431fa9d32365a04f22a1ea34c5eebed20adf33ab780",
      "transactionType": "CALL",
      "contractName": null,
      "contractAddress": "0xffa18ca502ce2768b082bb5a41157bd9b7f24ba2",
      "function": "safeMint(address,string)",
      "arguments": [
        "0xE297Ee702ccFE5D0eBd68d5618aA08E40Cc0DcB3",
        "\"https://i.imgur.com/90D5G01.jpg\""
      ],
      "transaction": {
        "from": "0xc5a5f537d8861143efa4dd1585b44a90c3de1953",
        "to": "0xffa18ca502ce2768b082bb5a41157bd9b7f24ba2",
        "gas": "0x206ce",
        "value": "0x0",
        "input": "0xd204c45e000000000000000000000000e297ee702ccfe5d0ebd68d5618aa08e40cc0dcb30000000000000000000000000000000000000000000000000000000000000040000000000000000000000000000000000000000000000000000000000000001f68747470733a2f2f692e696d6775722e636f6d2f393044354730312e6a706700",
        "nonce": "0x39",
        "chainId": "0x13882"
      },
      "additionalContracts": [],
      "isFixedGasLimit": false
    },
    {
      "hash": "0x4882d633802d49134a1da64b8429243f75c56148aaea7036d571c4bbf511a638",
      "transactionType": "CALL",
      "contractName": null,
      "contractAddress": "0xffa18ca502ce2768b082bb5a41157bd9b7f24ba2",
      "function": "safeMint(address,string)",
      "arguments": [
        "0xE297Ee702ccFE5D0eBd68d5618aA08E40Cc0DcB3",
        "\"https://i.imgur.com/90D5G01.jpg\""
      ],
      "transaction": {
        "from": "0xc5a5f537d8861143efa4dd1585b44a90c3de1953",
        "to": "0xffa18ca502ce2768b082bb5a41157bd9b7f24ba2",
        "gas": "0x206ce",
        "value": "0x0",
        "input": "0xd204c45e000000000000000000000000e297ee702ccfe5d0ebd68d5618aa08e40cc0dcb30000000000000000000000000000000000000000000000000000000000000040000000000000000000000000000000000000000000000000000000000000001f68747470733a2f2f692e696d6775722e636f6d2f393044354730312e6a706700",
        "nonce": "0x3a",
        "chainId": "0x13882"
      },
      "additionalContracts": [],
      "isFixedGasLimit": false
    },
    {
      "hash": "0xf66223812a7663a703cff16d47b32a8ec66b89df5fe3230b997509f942b900af",
      "transactionType": "CALL",
      "contractName": null,
      "contractAddress": "0xffa18ca502ce2768b082bb5a41157bd9b7f24ba2",
      "function": "safeMint(address,string)",
      "arguments": [
        "0xc5a5F537d8861143EFa4DD1585B44A90C3de1953",
        "\"https://i.imgur.com/90D5G01.jpg\""
      ],
      "transaction": {
        "from": "0xc5a5f537d8861143efa4dd1585b44a90c3de1953",
        "to": "0xffa18ca502ce2768b082bb5a41157bd9b7f24ba2",
        "gas": "0x1d3b0",
        "value": "0x0",
        "input": "0xd204c45e000000000000000000000000c5a5f537d8861143efa4dd1585b44a90c3de19530000000000000000000000000000000000000000000000000000000000000040000000000000000000000000000000000000000000000000000000000000001f68747470733a2f2f692e696d6775722e636f6d2f393044354730312e6a706700",
        "nonce": "0x3b",
        "chainId": "0x13882"
      },
      "additionalContracts": [],
      "isFixedGasLimit": false
    },
    {
      "hash": "0x5f90495250be44d18b5dcaf9629a3f64ff3228067c99573cfe07c962261f3133",
      "transactionType": "CALL",
      "contractName": null,
      "contractAddress": "0xffa18ca502ce2768b082bb5a41157bd9b7f24ba2",
      "function": "safeMint(address,string)",
      "arguments": [
        "0xc5a5F537d8861143EFa4DD1585B44A90C3de1953",
        "\"https://i.imgur.com/90D5G01.jpg\""
      ],
      "transaction": {
        "from": "0xc5a5f537d8861143efa4dd1585b44a90c3de1953",
        "to": "0xffa18ca502ce2768b082bb5a41157bd9b7f24ba2",
        "gas": "0x1d3b0",
        "value": "0x0",
        "input": "0xd204c45e000000000000000000000000c5a5f537d8861143efa4dd1585b44a90c3de19530000000000000000000000000000000000000000000000000000000000000040000000000000000000000000000000000000000000000000000000000000001f68747470733a2f2f692e696d6775722e636f6d2f393044354730312e6a706700",
        "nonce": "0x3c",
        "chainId": "0x13882"
      },
      "additionalContracts": [],
      "isFixedGasLimit": false
    },
    {
      "hash": "0x30b0e0c3afa546b50df21429e558b0b6fa27cbc9fa57a7cdea537a16ceebfbbb",
      "transactionType": "CALL",
      "contractName": null,
      "contractAddress": "0xffa18ca502ce2768b082bb5a41157bd9b7f24ba2",
      "function": "safeMint(address,string)",
      "arguments": [
        "0xc5a5F537d8861143EFa4DD1585B44A90C3de1953",
        "\"https://i.imgur.com/90D5G01.jpg\""
      ],
      "transaction": {
        "from": "0xc5a5f537d8861143efa4dd1585b44a90c3de1953",
        "to": "0xffa18ca502ce2768b082bb5a41157bd9b7f24ba2",
        "gas": "0x1d3b0",
        "value": "0x0",
        "input": "0xd204c45e000000000000000000000000c5a5f537d8861143efa4dd1585b44a90c3de19530000000000000000000000000000000000000000000000000000000000000040000000000000000000000000000000000000000000000000000000000000001f68747470733a2f2f692e696d6775722e636f6d2f393044354730312e6a706700",
        "nonce": "0x3d",
        "chainId": "0x13882"
      },
      "additionalContracts": [],
      "isFixedGasLimit": false
    },
    {
      "hash": "0x404cf0ff289f9e490432055d055bb4b23e5e1f931c41486b611b5046e295e437",
      "transactionType": "CALL",
      "contractName": null,
      "contractAddress": "0xffa18ca502ce2768b082bb5a41157bd9b7f24ba2",
      "function": "safeMint(address,string)",
      "arguments": [
        "0xc5a5F537d8861143EFa4DD1585B44A90C3de1953",
        "\"https://i.imgur.com/90D5G01.jpg\""
      ],
      "transaction": {
        "from": "0xc5a5f537d8861143efa4dd1585b44a90c3de1953",
        "to": "0xffa18ca502ce2768b082bb5a41157bd9b7f24ba2",
        "gas": "0x1d3b0",
        "value": "0x0",
        "input": "0xd204c45e000000000000000000000000c5a5f537d8861143efa4dd1585b44a90c3de19530000000000000000000000000000000000000000000000000000000000000040000000000000000000000000000000000000000000000000000000000000001f68747470733a2f2f692e696d6775722e636f6d2f393044354730312e6a706700",
        "nonce": "0x3e",
        "chainId": "0x13882"
      },
      "additionalContracts": [],
      "isFixedGasLimit": false
    },
    {
      "hash": "0xb876f699f5e2eb0871ad64b02ddf878e003173ae3c0565c8ac4f8350c5e14825",
      "transactionType": "CALL",
      "contractName": null,
      "contractAddress": "0xffa18ca502ce2768b082bb5a41157bd9b7f24ba2",
      "function": "safeMint(address,string)",
      "arguments": [
        "0xc5a5F537d8861143EFa4DD1585B44A90C3de1953",
        "\"https://i.imgur.com/90D5G01.jpg\""
      ],
      "transaction": {
        "from": "0xc5a5f537d8861143efa4dd1585b44a90c3de1953",
        "to": "0xffa18ca502ce2768b082bb5a41157bd9b7f24ba2",
        "gas": "0x1d3b0",
        "value": "0x0",
        "input": "0xd204c45e000000000000000000000000c5a5f537d8861143efa4dd1585b44a90c3de19530000000000000000000000000000000000000000000000000000000000000040000000000000000000000000000000000000000000000000000000000000001f68747470733a2f2f692e696d6775722e636f6d2f393044354730312e6a706700",
        "nonce": "0x3f",
        "chainId": "0x13882"
      },
      "additionalContracts": [],
      "isFixedGasLimit": false
    },
    {
      "hash": "0xbfb6f0f0f19b49aefb377008e785dc4a0ba89686e9baa85e470e36f37f26444d",
      "transactionType": "CALL",
      "contractName": null,
      "contractAddress": "0xffa18ca502ce2768b082bb5a41157bd9b7f24ba2",
      "function": "safeMint(address,string)",
      "arguments": [
        "0xc5a5F537d8861143EFa4DD1585B44A90C3de1953",
        "\"https://i.imgur.com/90D5G01.jpg\""
      ],
      "transaction": {
        "from": "0xc5a5f537d8861143efa4dd1585b44a90c3de1953",
        "to": "0xffa18ca502ce2768b082bb5a41157bd9b7f24ba2",
        "gas": "0x1d3b0",
        "value": "0x0",
        "input": "0xd204c45e000000000000000000000000c5a5f537d8861143efa4dd1585b44a90c3de19530000000000000000000000000000000000000000000000000000000000000040000000000000000000000000000000000000000000000000000000000000001f68747470733a2f2f692e696d6775722e636f6d2f393044354730312e6a706700",
        "nonce": "0x40",
        "chainId": "0x13882"
      },
      "additionalContracts": [],
      "isFixedGasLimit": false
    },
    {
      "hash": "0x592cd56e324fe3f1831cfc22360a3cd10bac2d77aad4f20a025d452b7a685fa2",
      "transactionType": "CALL",
      "contractName": null,
      "contractAddress": "0xffa18ca502ce2768b082bb5a41157bd9b7f24ba2",
      "function": "safeMint(address,string)",
      "arguments": [
        "0xc5a5F537d8861143EFa4DD1585B44A90C3de1953",
        "\"https://i.imgur.com/90D5G01.jpg\""
      ],
      "transaction": {
        "from": "0xc5a5f537d8861143efa4dd1585b44a90c3de1953",
        "to": "0xffa18ca502ce2768b082bb5a41157bd9b7f24ba2",
        "gas": "0x1d3b0",
        "value": "0x0",
        "input": "0xd204c45e000000000000000000000000c5a5f537d8861143efa4dd1585b44a90c3de19530000000000000000000000000000000000000000000000000000000000000040000000000000000000000000000000000000000000000000000000000000001f68747470733a2f2f692e696d6775722e636f6d2f393044354730312e6a706700",
        "nonce": "0x41",
        "chainId": "0x13882"
      },
      "additionalContracts": [],
      "isFixedGasLimit": false
    },
    {
      "hash": "0x7dc1bbc4fada14c0fba584ce497213b3012b0975a4537394c383a5440bc55a5a",
      "transactionType": "CALL",
      "contractName": null,
      "contractAddress": "0xffa18ca502ce2768b082bb5a41157bd9b7f24ba2",
      "function": "safeMint(address,string)",
      "arguments": [
        "0xc5a5F537d8861143EFa4DD1585B44A90C3de1953",
        "\"https://i.imgur.com/90D5G01.jpg\""
      ],
      "transaction": {
        "from": "0xc5a5f537d8861143efa4dd1585b44a90c3de1953",
        "to": "0xffa18ca502ce2768b082bb5a41157bd9b7f24ba2",
        "gas": "0x1d3b0",
        "value": "0x0",
        "input": "0xd204c45e000000000000000000000000c5a5f537d8861143efa4dd1585b44a90c3de19530000000000000000000000000000000000000000000000000000000000000040000000000000000000000000000000000000000000000000000000000000001f68747470733a2f2f692e696d6775722e636f6d2f393044354730312e6a706700",
        "nonce": "0x42",
        "chainId": "0x13882"
      },
      "additionalContracts": [],
      "isFixedGasLimit": false
    }
  ],
  "receipts": [
    {
      "status": "0x1",
      "cumulativeGasUsed": "0x1ba68",
      "logs": [
        {
          "address": "0xffa18ca502ce2768b082bb5a41157bd9b7f24ba2",
          "topics": [
            "0xddf252ad1be2c89b69c2b068fc378daa952ba7f163c4a11628f55a4df523b3ef",
            "0x0000000000000000000000000000000000000000000000000000000000000000",
            "0x000000000000000000000000e297ee702ccfe5d0ebd68d5618aa08e40cc0dcb3",
            "0x000000000000000000000000000000000000000000000000000000000000000c"
          ],
          "data": "0x",
          "blockHash": "0xacf98df149afa1a7623589346e4fbb858b1d0b381c44f27ff01f65e067accc3a",
          "blockNumber": "0xe9d895",
          "transactionHash": "0xdcee852ac71c8097994147898b191c8b27feaa5fb8c925e85d5cb2a8aa862e18",
          "transactionIndex": "0x0",
          "logIndex": "0x0",
          "removed": false
        },
        {
          "address": "0xffa18ca502ce2768b082bb5a41157bd9b7f24ba2",
          "topics": [
            "0xf8e1a15aba9398e019f0b49df1a4fde98ee17ae345cb5f6b5e2c27f5033e8ce7"
          ],
          "data": "0x000000000000000000000000000000000000000000000000000000000000000c",
          "blockHash": "0xacf98df149afa1a7623589346e4fbb858b1d0b381c44f27ff01f65e067accc3a",
          "blockNumber": "0xe9d895",
          "transactionHash": "0xdcee852ac71c8097994147898b191c8b27feaa5fb8c925e85d5cb2a8aa862e18",
          "transactionIndex": "0x0",
          "logIndex": "0x1",
          "removed": false
        },
        {
          "address": "0x0000000000000000000000000000000000001010",
          "topics": [
            "0x4dfe1bbbcf077ddc3e01291eea2d5c70c2b422b415d95645b9adcfd678cb1d63",
            "0x0000000000000000000000000000000000000000000000000000000000001010",
            "0x000000000000000000000000c5a5f537d8861143efa4dd1585b44a90c3de1953",
            "0x0000000000000000000000004ad84f7014b7b44f723f284a85b1662337971439"
          ],
          "data": "0x0000000000000000000000000000000000000000000000000019e358df88438000000000000000000000000000000000000000000000000002667004f210939500000000000000000000000000000000000000000000046f17f158f3d9169bc6000000000000000000000000000000000000000000000000024c8cac1288501500000000000000000000000000000000000000000000046f180b3c4cb89edf46",
          "blockHash": "0xacf98df149afa1a7623589346e4fbb858b1d0b381c44f27ff01f65e067accc3a",
          "blockNumber": "0xe9d895",
          "transactionHash": "0xdcee852ac71c8097994147898b191c8b27feaa5fb8c925e85d5cb2a8aa862e18",
          "transactionIndex": "0x0",
          "logIndex": "0x2",
          "removed": false
        }
      ],
      "logsBloom": "0x0000000000000400000000000000000000080200000000000000000000000200000001000000020004000000000000000000800000000000000000000040000000000000000000000000000800000080000000004000000000010200100000000000000002000000000000000000080000000000000000008000001000000000000000000000000000000000000000000000000000000000000000000000200020000000000000000000000000000000200000000000000000000000000000c000000002000010000001000000000000000000000000000000100000000020200000000000000000200000000000008000000000000000000000000000100000",
      "type": "0x2",
      "transactionHash": "0xdcee852ac71c8097994147898b191c8b27feaa5fb8c925e85d5cb2a8aa862e18",
      "transactionIndex": "0x0",
      "blockHash": "0xacf98df149afa1a7623589346e4fbb858b1d0b381c44f27ff01f65e067accc3a",
      "blockNumber": "0xe9d895",
      "gasUsed": "0x1ba68",
      "effectiveGasPrice": "0xefaf0523f",
      "from": "0xc5a5f537d8861143efa4dd1585b44a90c3de1953",
      "to": "0xffa18ca502ce2768b082bb5a41157bd9b7f24ba2",
      "contractAddress": null
    },
    {
      "status": "0x1",
      "cumulativeGasUsed": "0x33204",
      "logs": [
        {
          "address": "0xffa18ca502ce2768b082bb5a41157bd9b7f24ba2",
          "topics": [
            "0xddf252ad1be2c89b69c2b068fc378daa952ba7f163c4a11628f55a4df523b3ef",
            "0x0000000000000000000000000000000000000000000000000000000000000000",
            "0x000000000000000000000000e297ee702ccfe5d0ebd68d5618aa08e40cc0dcb3",
            "0x000000000000000000000000000000000000000000000000000000000000000d"
          ],
          "data": "0x",
          "blockHash": "0xacf98df149afa1a7623589346e4fbb858b1d0b381c44f27ff01f65e067accc3a",
          "blockNumber": "0xe9d895",
          "transactionHash": "0xaa0d9f5818b8c5bb73e8a431fa9d32365a04f22a1ea34c5eebed20adf33ab780",
          "transactionIndex": "0x1",
          "logIndex": "0x3",
          "removed": false
        },
        {
          "address": "0xffa18ca502ce2768b082bb5a41157bd9b7f24ba2",
          "topics": [
            "0xf8e1a15aba9398e019f0b49df1a4fde98ee17ae345cb5f6b5e2c27f5033e8ce7"
          ],
          "data": "0x000000000000000000000000000000000000000000000000000000000000000d",
          "blockHash": "0xacf98df149afa1a7623589346e4fbb858b1d0b381c44f27ff01f65e067accc3a",
          "blockNumber": "0xe9d895",
          "transactionHash": "0xaa0d9f5818b8c5bb73e8a431fa9d32365a04f22a1ea34c5eebed20adf33ab780",
          "transactionIndex": "0x1",
          "logIndex": "0x4",
          "removed": false
        },
        {
          "address": "0x0000000000000000000000000000000000001010",
          "topics": [
            "0x4dfe1bbbcf077ddc3e01291eea2d5c70c2b422b415d95645b9adcfd678cb1d63",
            "0x0000000000000000000000000000000000000000000000000000000000001010",
            "0x000000000000000000000000c5a5f537d8861143efa4dd1585b44a90c3de1953",
            "0x0000000000000000000000004ad84f7014b7b44f723f284a85b1662337971439"
          ],
          "data": "0x0000000000000000000000000000000000000000000000000015fab6f2d66540000000000000000000000000000000000000000000000000024c8cac126e63fd00000000000000000000000000000000000000000000046f180b3c4cb89edf46000000000000000000000000000000000000000000000000023691f51f97febd00000000000000000000000000000000000000000000046f18213703ab754486",
          "blockHash": "0xacf98df149afa1a7623589346e4fbb858b1d0b381c44f27ff01f65e067accc3a",
          "blockNumber": "0xe9d895",
          "transactionHash": "0xaa0d9f5818b8c5bb73e8a431fa9d32365a04f22a1ea34c5eebed20adf33ab780",
          "transactionIndex": "0x1",
          "logIndex": "0x5",
          "removed": false
        }
      ],
      "logsBloom": "0x0000000000000400004000000000000000080000000000000000000000000200000001000000000004000000000000000000800000000000000000000040000000000000000000000000000800000080000200004000000000010200100000000000000002000000000000000000080000000000000000008000001000000000000000000000000000000000000000000000000000000000000000000000200020000000000000000000000000000000200000000000000000000000000000c000000002000010000001000000000000000000000000000000100000000020020000000000000000200000000000008000000000000000000000000000100000",
      "type": "0x2",
      "transactionHash": "0xaa0d9f5818b8c5bb73e8a431fa9d32365a04f22a1ea34c5eebed20adf33ab780",
      "transactionIndex": "0x1",
      "blockHash": "0xacf98df149afa1a7623589346e4fbb858b1d0b381c44f27ff01f65e067accc3a",
      "blockNumber": "0xe9d895",
      "gasUsed": "0x1779c",
      "effectiveGasPrice": "0xefaf0523f",
      "from": "0xc5a5f537d8861143efa4dd1585b44a90c3de1953",
      "to": "0xffa18ca502ce2768b082bb5a41157bd9b7f24ba2",
      "contractAddress": null
    },
    {
      "status": "0x1",
      "cumulativeGasUsed": "0x4a9a0",
      "logs": [
        {
          "address": "0xffa18ca502ce2768b082bb5a41157bd9b7f24ba2",
          "topics": [
            "0xddf252ad1be2c89b69c2b068fc378daa952ba7f163c4a11628f55a4df523b3ef",
            "0x0000000000000000000000000000000000000000000000000000000000000000",
            "0x000000000000000000000000e297ee702ccfe5d0ebd68d5618aa08e40cc0dcb3",
            "0x000000000000000000000000000000000000000000000000000000000000000e"
          ],
          "data": "0x",
          "blockHash": "0xacf98df149afa1a7623589346e4fbb858b1d0b381c44f27ff01f65e067accc3a",
          "blockNumber": "0xe9d895",
          "transactionHash": "0x4882d633802d49134a1da64b8429243f75c56148aaea7036d571c4bbf511a638",
          "transactionIndex": "0x2",
          "logIndex": "0x6",
          "removed": false
        },
        {
          "address": "0xffa18ca502ce2768b082bb5a41157bd9b7f24ba2",
          "topics": [
            "0xf8e1a15aba9398e019f0b49df1a4fde98ee17ae345cb5f6b5e2c27f5033e8ce7"
          ],
          "data": "0x000000000000000000000000000000000000000000000000000000000000000e",
          "blockHash": "0xacf98df149afa1a7623589346e4fbb858b1d0b381c44f27ff01f65e067accc3a",
          "blockNumber": "0xe9d895",
          "transactionHash": "0x4882d633802d49134a1da64b8429243f75c56148aaea7036d571c4bbf511a638",
          "transactionIndex": "0x2",
          "logIndex": "0x7",
          "removed": false
        },
        {
          "address": "0x0000000000000000000000000000000000001010",
          "topics": [
            "0x4dfe1bbbcf077ddc3e01291eea2d5c70c2b422b415d95645b9adcfd678cb1d63",
            "0x0000000000000000000000000000000000000000000000000000000000001010",
            "0x000000000000000000000000c5a5f537d8861143efa4dd1585b44a90c3de1953",
            "0x0000000000000000000000004ad84f7014b7b44f723f284a85b1662337971439"
          ],
          "data": "0x0000000000000000000000000000000000000000000000000015fab6f2d66540000000000000000000000000000000000000000000000000023691f51f81fc9900000000000000000000000000000000000000000000046f18213703ab7544860000000000000000000000000000000000000000000000000220973e2cab975900000000000000000000000000000000000000000000046f183731ba9e4ba9c6",
          "blockHash": "0xacf98df149afa1a7623589346e4fbb858b1d0b381c44f27ff01f65e067accc3a",
          "blockNumber": "0xe9d895",
          "transactionHash": "0x4882d633802d49134a1da64b8429243f75c56148aaea7036d571c4bbf511a638",
          "transactionIndex": "0x2",
          "logIndex": "0x8",
          "removed": false
        }
      ],
      "logsBloom": "0x0000000000000400000000000000000000080000000000000000000000000200000001000000000004000000000000000000800000000000000000000040000000000000000000080000000800000080000000004000000000010200100000000000000002000000000000000000080000000000000000008000001000000000000000000000000000000000000000000800000000000000000000000000200020000000000000000000000000000000200000000000002000000000000000c000000002000010000001000000000000000000000000000000100000000020000000000000000000200000000000008000000000000000000000000000100000",
      "type": "0x2",
      "transactionHash": "0x4882d633802d49134a1da64b8429243f75c56148aaea7036d571c4bbf511a638",
      "transactionIndex": "0x2",
      "blockHash": "0xacf98df149afa1a7623589346e4fbb858b1d0b381c44f27ff01f65e067accc3a",
      "blockNumber": "0xe9d895",
      "gasUsed": "0x1779c",
      "effectiveGasPrice": "0xefaf0523f",
      "from": "0xc5a5f537d8861143efa4dd1585b44a90c3de1953",
      "to": "0xffa18ca502ce2768b082bb5a41157bd9b7f24ba2",
      "contractAddress": null
    },
    {
      "status": "0x1",
      "cumulativeGasUsed": "0x5e96a",
      "logs": [
        {
          "address": "0xffa18ca502ce2768b082bb5a41157bd9b7f24ba2",
          "topics": [
            "0xddf252ad1be2c89b69c2b068fc378daa952ba7f163c4a11628f55a4df523b3ef",
            "0x0000000000000000000000000000000000000000000000000000000000000000",
            "0x000000000000000000000000c5a5f537d8861143efa4dd1585b44a90c3de1953",
            "0x000000000000000000000000000000000000000000000000000000000000000f"
          ],
          "data": "0x",
          "blockHash": "0xacf98df149afa1a7623589346e4fbb858b1d0b381c44f27ff01f65e067accc3a",
          "blockNumber": "0xe9d895",
          "transactionHash": "0xf66223812a7663a703cff16d47b32a8ec66b89df5fe3230b997509f942b900af",
          "transactionIndex": "0x3",
          "logIndex": "0x9",
          "removed": false
        },
        {
          "address": "0xffa18ca502ce2768b082bb5a41157bd9b7f24ba2",
          "topics": [
            "0xf8e1a15aba9398e019f0b49df1a4fde98ee17ae345cb5f6b5e2c27f5033e8ce7"
          ],
          "data": "0x000000000000000000000000000000000000000000000000000000000000000f",
          "blockHash": "0xacf98df149afa1a7623589346e4fbb858b1d0b381c44f27ff01f65e067accc3a",
          "blockNumber": "0xe9d895",
          "transactionHash": "0xf66223812a7663a703cff16d47b32a8ec66b89df5fe3230b997509f942b900af",
          "transactionIndex": "0x3",
          "logIndex": "0xa",
          "removed": false
        },
        {
          "address": "0x0000000000000000000000000000000000001010",
          "topics": [
            "0x4dfe1bbbcf077ddc3e01291eea2d5c70c2b422b415d95645b9adcfd678cb1d63",
            "0x0000000000000000000000000000000000000000000000000000000000001010",
            "0x000000000000000000000000c5a5f537d8861143efa4dd1585b44a90c3de1953",
            "0x0000000000000000000000004ad84f7014b7b44f723f284a85b1662337971439"
          ],
          "data": "0x0000000000000000000000000000000000000000000000000012b683780aa9e00000000000000000000000000000000000000000000000000220973e2c95953500000000000000000000000000000000000000000000046f183731ba9e4ba9c6000000000000000000000000000000000000000000000000020de0bab48aeb5500000000000000000000000000000000000000000000046f1849e83e165653a6",
          "blockHash": "0xacf98df149afa1a7623589346e4fbb858b1d0b381c44f27ff01f65e067accc3a",
          "blockNumber": "0xe9d895",
          "transactionHash": "0xf66223812a7663a703cff16d47b32a8ec66b89df5fe3230b997509f942b900af",
          "transactionIndex": "0x3",
          "logIndex": "0xb",
          "removed": false
        }
      ],
      "logsBloom": "0x0000000000000000000000000000000000080000000000000000000000000200000000000000000004000000000000000000800000000000000000000040000000000000000000000000000800000080000000000000000000010200100200000000000002000000000000000000080000000000000000008000001000000000000000000000080000000000000000000000000000000000000000000000200020000000000000000000000000000000200000000000000000000000000000c000000002000010000001000000000000000000000000000000100000000020000000000200000000200000000000008000000000000000000000000000100000",
      "type": "0x2",
      "transactionHash": "0xf66223812a7663a703cff16d47b32a8ec66b89df5fe3230b997509f942b900af",
      "transactionIndex": "0x3",
      "blockHash": "0xacf98df149afa1a7623589346e4fbb858b1d0b381c44f27ff01f65e067accc3a",
      "blockNumber": "0xe9d895",
      "gasUsed": "0x13fca",
      "effectiveGasPrice": "0xefaf0523f",
      "from": "0xc5a5f537d8861143efa4dd1585b44a90c3de1953",
      "to": "0xffa18ca502ce2768b082bb5a41157bd9b7f24ba2",
      "contractAddress": null
    },
    {
      "status": "0x1",
      "cumulativeGasUsed": "0x13fca",
      "logs": [
        {
          "address": "0xffa18ca502ce2768b082bb5a41157bd9b7f24ba2",
          "topics": [
            "0xddf252ad1be2c89b69c2b068fc378daa952ba7f163c4a11628f55a4df523b3ef",
            "0x0000000000000000000000000000000000000000000000000000000000000000",
            "0x000000000000000000000000c5a5f537d8861143efa4dd1585b44a90c3de1953",
            "0x0000000000000000000000000000000000000000000000000000000000000010"
          ],
          "data": "0x",
          "blockHash": "0x1e86c341b0b692c6840479cef584f76ca4b019d225febcb35d07cf2bc78c6537",
          "blockNumber": "0xe9d896",
          "transactionHash": "0x5f90495250be44d18b5dcaf9629a3f64ff3228067c99573cfe07c962261f3133",
          "transactionIndex": "0x0",
          "logIndex": "0x0",
          "removed": false
        },
        {
          "address": "0xffa18ca502ce2768b082bb5a41157bd9b7f24ba2",
          "topics": [
            "0xf8e1a15aba9398e019f0b49df1a4fde98ee17ae345cb5f6b5e2c27f5033e8ce7"
          ],
          "data": "0x0000000000000000000000000000000000000000000000000000000000000010",
          "blockHash": "0x1e86c341b0b692c6840479cef584f76ca4b019d225febcb35d07cf2bc78c6537",
          "blockNumber": "0xe9d896",
          "transactionHash": "0x5f90495250be44d18b5dcaf9629a3f64ff3228067c99573cfe07c962261f3133",
          "transactionIndex": "0x0",
          "logIndex": "0x1",
          "removed": false
        },
        {
          "address": "0x0000000000000000000000000000000000001010",
          "topics": [
            "0x4dfe1bbbcf077ddc3e01291eea2d5c70c2b422b415d95645b9adcfd678cb1d63",
            "0x0000000000000000000000000000000000000000000000000000000000001010",
            "0x000000000000000000000000c5a5f537d8861143efa4dd1585b44a90c3de1953",
            "0x0000000000000000000000004ad84f7014b7b44f723f284a85b1662337971439"
          ],
          "data": "0x0000000000000000000000000000000000000000000000000012b683780aa9e0000000000000000000000000000000000000000000000000020de0bab4782e7f00000000000000000000000000000000000000000000046f186a3521c36d6ba600000000000000000000000000000000000000000000000001fb2a373c6d849f00000000000000000000000000000000000000000000046f187ceba53b781586",
          "blockHash": "0x1e86c341b0b692c6840479cef584f76ca4b019d225febcb35d07cf2bc78c6537",
          "blockNumber": "0xe9d896",
          "transactionHash": "0x5f90495250be44d18b5dcaf9629a3f64ff3228067c99573cfe07c962261f3133",
          "transactionIndex": "0x0",
          "logIndex": "0x2",
          "removed": false
        }
      ],
      "logsBloom": "0x0000000010000000000000000000000000080000000000000000000000000200000000000000000004000000000000000000800000000000000000000040000000000000000000000000000800000080000000000000000000010200100000000000000002000000000000000000080000000000000000008000001004000000000000000000000000000000000000000000010000000000000000000000200020000000000000000000000000000000200000000000000000000000000000c000000002000010000001000000000000000000000000000000100000000020000000000000000000200000000000008000000000000000000000000000100000",
      "type": "0x2",
      "transactionHash": "0x5f90495250be44d18b5dcaf9629a3f64ff3228067c99573cfe07c962261f3133",
      "transactionIndex": "0x0",
      "blockHash": "0x1e86c341b0b692c6840479cef584f76ca4b019d225febcb35d07cf2bc78c6537",
      "blockNumber": "0xe9d896",
      "gasUsed": "0x13fca",
      "effectiveGasPrice": "0xefaf0523f",
      "from": "0xc5a5f537d8861143efa4dd1585b44a90c3de1953",
      "to": "0xffa18ca502ce2768b082bb5a41157bd9b7f24ba2",
      "contractAddress": null
    },
    {
      "status": "0x1",
      "cumulativeGasUsed": "0x27f94",
      "logs": [
        {
          "address": "0xffa18ca502ce2768b082bb5a41157bd9b7f24ba2",
          "topics": [
            "0xddf252ad1be2c89b69c2b068fc378daa952ba7f163c4a11628f55a4df523b3ef",
            "0x0000000000000000000000000000000000000000000000000000000000000000",
            "0x000000000000000000000000c5a5f537d8861143efa4dd1585b44a90c3de1953",
            "0x0000000000000000000000000000000000000000000000000000000000000011"
          ],
          "data": "0x",
          "blockHash": "0x1e86c341b0b692c6840479cef584f76ca4b019d225febcb35d07cf2bc78c6537",
          "blockNumber": "0xe9d896",
          "transactionHash": "0x30b0e0c3afa546b50df21429e558b0b6fa27cbc9fa57a7cdea537a16ceebfbbb",
          "transactionIndex": "0x1",
          "logIndex": "0x3",
          "removed": false
        },
        {
          "address": "0xffa18ca502ce2768b082bb5a41157bd9b7f24ba2",
          "topics": [
            "0xf8e1a15aba9398e019f0b49df1a4fde98ee17ae345cb5f6b5e2c27f5033e8ce7"
          ],
          "data": "0x0000000000000000000000000000000000000000000000000000000000000011",
          "blockHash": "0x1e86c341b0b692c6840479cef584f76ca4b019d225febcb35d07cf2bc78c6537",
          "blockNumber": "0xe9d896",
          "transactionHash": "0x30b0e0c3afa546b50df21429e558b0b6fa27cbc9fa57a7cdea537a16ceebfbbb",
          "transactionIndex": "0x1",
          "logIndex": "0x4",
          "removed": false
        },
        {
          "address": "0x0000000000000000000000000000000000001010",
          "topics": [
            "0x4dfe1bbbcf077ddc3e01291eea2d5c70c2b422b415d95645b9adcfd678cb1d63",
            "0x0000000000000000000000000000000000000000000000000000000000001010",
            "0x000000000000000000000000c5a5f537d8861143efa4dd1585b44a90c3de1953",
            "0x0000000000000000000000004ad84f7014b7b44f723f284a85b1662337971439"
          ],
          "data": "0x0000000000000000000000000000000000000000000000000012b683780aa9e000000000000000000000000000000000000000000000000001fb2a373c5ac7c900000000000000000000000000000000000000000000046f187ceba53b78158600000000000000000000000000000000000000000000000001e873b3c4501de900000000000000000000000000000000000000000000046f188fa228b382bf66",
          "blockHash": "0x1e86c341b0b692c6840479cef584f76ca4b019d225febcb35d07cf2bc78c6537",
          "blockNumber": "0xe9d896",
          "transactionHash": "0x30b0e0c3afa546b50df21429e558b0b6fa27cbc9fa57a7cdea537a16ceebfbbb",
          "transactionIndex": "0x1",
          "logIndex": "0x5",
          "removed": false
        }
      ],
      "logsBloom": "0x0000000000000000000000000000000000080000000000000000000000000200000000000000000004000000000000000000800000000000000000000040000000000000000000000000000800000080000000000000000000010200100000000000000002000000000000000000080000000000400000008000001000000000000000000000000000000000000000000000000000000000000000000000200020000000000000000000000000000000200000000000000000000000040000c000001002000010000001000000000000000000000000000000100000000020000000000000000000200000000000008000000000000000000000000000100000",
      "type": "0x2",
      "transactionHash": "0x30b0e0c3afa546b50df21429e558b0b6fa27cbc9fa57a7cdea537a16ceebfbbb",
      "transactionIndex": "0x1",
      "blockHash": "0x1e86c341b0b692c6840479cef584f76ca4b019d225febcb35d07cf2bc78c6537",
      "blockNumber": "0xe9d896",
      "gasUsed": "0x13fca",
      "effectiveGasPrice": "0xefaf0523f",
      "from": "0xc5a5f537d8861143efa4dd1585b44a90c3de1953",
      "to": "0xffa18ca502ce2768b082bb5a41157bd9b7f24ba2",
      "contractAddress": null
    },
    {
      "status": "0x1",
      "cumulativeGasUsed": "0x3bf5e",
      "logs": [
        {
          "address": "0xffa18ca502ce2768b082bb5a41157bd9b7f24ba2",
          "topics": [
            "0xddf252ad1be2c89b69c2b068fc378daa952ba7f163c4a11628f55a4df523b3ef",
            "0x0000000000000000000000000000000000000000000000000000000000000000",
            "0x000000000000000000000000c5a5f537d8861143efa4dd1585b44a90c3de1953",
            "0x0000000000000000000000000000000000000000000000000000000000000012"
          ],
          "data": "0x",
          "blockHash": "0x1e86c341b0b692c6840479cef584f76ca4b019d225febcb35d07cf2bc78c6537",
          "blockNumber": "0xe9d896",
          "transactionHash": "0x404cf0ff289f9e490432055d055bb4b23e5e1f931c41486b611b5046e295e437",
          "transactionIndex": "0x2",
          "logIndex": "0x6",
          "removed": false
        },
        {
          "address": "0xffa18ca502ce2768b082bb5a41157bd9b7f24ba2",
          "topics": [
            "0xf8e1a15aba9398e019f0b49df1a4fde98ee17ae345cb5f6b5e2c27f5033e8ce7"
          ],
          "data": "0x0000000000000000000000000000000000000000000000000000000000000012",
          "blockHash": "0x1e86c341b0b692c6840479cef584f76ca4b019d225febcb35d07cf2bc78c6537",
          "blockNumber": "0xe9d896",
          "transactionHash": "0x404cf0ff289f9e490432055d055bb4b23e5e1f931c41486b611b5046e295e437",
          "transactionIndex": "0x2",
          "logIndex": "0x7",
          "removed": false
        },
        {
          "address": "0x0000000000000000000000000000000000001010",
          "topics": [
            "0x4dfe1bbbcf077ddc3e01291eea2d5c70c2b422b415d95645b9adcfd678cb1d63",
            "0x0000000000000000000000000000000000000000000000000000000000001010",
            "0x000000000000000000000000c5a5f537d8861143efa4dd1585b44a90c3de1953",
            "0x0000000000000000000000004ad84f7014b7b44f723f284a85b1662337971439"
          ],
          "data": "0x0000000000000000000000000000000000000000000000000012b683780aa9e000000000000000000000000000000000000000000000000001e873b3c43d611300000000000000000000000000000000000000000000046f188fa228b382bf6600000000000000000000000000000000000000000000000001d5bd304c32b73300000000000000000000000000000000000000000000046f18a258ac2b8d6946",
          "blockHash": "0x1e86c341b0b692c6840479cef584f76ca4b019d225febcb35d07cf2bc78c6537",
          "blockNumber": "0xe9d896",
          "transactionHash": "0x404cf0ff289f9e490432055d055bb4b23e5e1f931c41486b611b5046e295e437",
          "transactionIndex": "0x2",
          "logIndex": "0x8",
          "removed": false
        }
      ],
      "logsBloom": "0x0000000000000000000000000000000000080000000000000000000000000200000000000000000004000000000000000000800000000000000000000040000000000000000000000000000800000080000000000000000000010200100000000000000002000000000000000000080000000000000000008000001000000000000000000000000000000000000004000000000000000000000000000000200020000000000000000000000000000000200000000000004000000000000000c000000002000010000401000000000000000000000000000000100000000020000000000000000000200000000000008000000000000000000000000000100000",
      "type": "0x2",
      "transactionHash": "0x404cf0ff289f9e490432055d055bb4b23e5e1f931c41486b611b5046e295e437",
      "transactionIndex": "0x2",
      "blockHash": "0x1e86c341b0b692c6840479cef584f76ca4b019d225febcb35d07cf2bc78c6537",
      "blockNumber": "0xe9d896",
      "gasUsed": "0x13fca",
      "effectiveGasPrice": "0xefaf0523f",
      "from": "0xc5a5f537d8861143efa4dd1585b44a90c3de1953",
      "to": "0xffa18ca502ce2768b082bb5a41157bd9b7f24ba2",
      "contractAddress": null
    },
    {
      "status": "0x1",
      "cumulativeGasUsed": "0x4ff28",
      "logs": [
        {
          "address": "0xffa18ca502ce2768b082bb5a41157bd9b7f24ba2",
          "topics": [
            "0xddf252ad1be2c89b69c2b068fc378daa952ba7f163c4a11628f55a4df523b3ef",
            "0x0000000000000000000000000000000000000000000000000000000000000000",
            "0x000000000000000000000000c5a5f537d8861143efa4dd1585b44a90c3de1953",
            "0x0000000000000000000000000000000000000000000000000000000000000013"
          ],
          "data": "0x",
          "blockHash": "0x1e86c341b0b692c6840479cef584f76ca4b019d225febcb35d07cf2bc78c6537",
          "blockNumber": "0xe9d896",
          "transactionHash": "0xb876f699f5e2eb0871ad64b02ddf878e003173ae3c0565c8ac4f8350c5e14825",
          "transactionIndex": "0x3",
          "logIndex": "0x9",
          "removed": false
        },
        {
          "address": "0xffa18ca502ce2768b082bb5a41157bd9b7f24ba2",
          "topics": [
            "0xf8e1a15aba9398e019f0b49df1a4fde98ee17ae345cb5f6b5e2c27f5033e8ce7"
          ],
          "data": "0x0000000000000000000000000000000000000000000000000000000000000013",
          "blockHash": "0x1e86c341b0b692c6840479cef584f76ca4b019d225febcb35d07cf2bc78c6537",
          "blockNumber": "0xe9d896",
          "transactionHash": "0xb876f699f5e2eb0871ad64b02ddf878e003173ae3c0565c8ac4f8350c5e14825",
          "transactionIndex": "0x3",
          "logIndex": "0xa",
          "removed": false
        },
        {
          "address": "0x0000000000000000000000000000000000001010",
          "topics": [
            "0x4dfe1bbbcf077ddc3e01291eea2d5c70c2b422b415d95645b9adcfd678cb1d63",
            "0x0000000000000000000000000000000000000000000000000000000000001010",
            "0x000000000000000000000000c5a5f537d8861143efa4dd1585b44a90c3de1953",
            "0x0000000000000000000000004ad84f7014b7b44f723f284a85b1662337971439"
          ],
          "data": "0x0000000000000000000000000000000000000000000000000012b683780aa9e000000000000000000000000000000000000000000000000001d5bd304c1ffa5d00000000000000000000000000000000000000000000046f18a258ac2b8d694600000000000000000000000000000000000000000000000001c306acd415507d00000000000000000000000000000000000000000000046f18b50f2fa3981326",
          "blockHash": "0x1e86c341b0b692c6840479cef584f76ca4b019d225febcb35d07cf2bc78c6537",
          "blockNumber": "0xe9d896",
          "transactionHash": "0xb876f699f5e2eb0871ad64b02ddf878e003173ae3c0565c8ac4f8350c5e14825",
          "transactionIndex": "0x3",
          "logIndex": "0xb",
          "removed": false
        }
      ],
      "logsBloom": "0x2000000000000000000000000080000000080000000000000000000000000200000000004000000004000000000000000000800000000000000000000040000000000000000000000000000800000080000000000000000000010200100000000000000002000000000000000000080000000000000000008000001000000000000000000000000000000000000000000000000000000000000000000000200020000000000000000000000000000000200000000000000000000000000000c000000002000010000001000000000000000000000000000000100000000020000000000000000000200000000000008000000000000000000000000000100000",
      "type": "0x2",
      "transactionHash": "0xb876f699f5e2eb0871ad64b02ddf878e003173ae3c0565c8ac4f8350c5e14825",
      "transactionIndex": "0x3",
      "blockHash": "0x1e86c341b0b692c6840479cef584f76ca4b019d225febcb35d07cf2bc78c6537",
      "blockNumber": "0xe9d896",
      "gasUsed": "0x13fca",
      "effectiveGasPrice": "0xefaf0523f",
      "from": "0xc5a5f537d8861143efa4dd1585b44a90c3de1953",
      "to": "0xffa18ca502ce2768b082bb5a41157bd9b7f24ba2",
      "contractAddress": null
    },
    {
      "status": "0x1",
      "cumulativeGasUsed": "0x63ef2",
      "logs": [
        {
          "address": "0xffa18ca502ce2768b082bb5a41157bd9b7f24ba2",
          "topics": [
            "0xddf252ad1be2c89b69c2b068fc378daa952ba7f163c4a11628f55a4df523b3ef",
            "0x0000000000000000000000000000000000000000000000000000000000000000",
            "0x000000000000000000000000c5a5f537d8861143efa4dd1585b44a90c3de1953",
            "0x0000000000000000000000000000000000000000000000000000000000000014"
          ],
          "data": "0x",
          "blockHash": "0x1e86c341b0b692c6840479cef584f76ca4b019d225febcb35d07cf2bc78c6537",
          "blockNumber": "0xe9d896",
          "transactionHash": "0xbfb6f0f0f19b49aefb377008e785dc4a0ba89686e9baa85e470e36f37f26444d",
          "transactionIndex": "0x4",
          "logIndex": "0xc",
          "removed": false
        },
        {
          "address": "0xffa18ca502ce2768b082bb5a41157bd9b7f24ba2",
          "topics": [
            "0xf8e1a15aba9398e019f0b49df1a4fde98ee17ae345cb5f6b5e2c27f5033e8ce7"
          ],
          "data": "0x0000000000000000000000000000000000000000000000000000000000000014",
          "blockHash": "0x1e86c341b0b692c6840479cef584f76ca4b019d225febcb35d07cf2bc78c6537",
          "blockNumber": "0xe9d896",
          "transactionHash": "0xbfb6f0f0f19b49aefb377008e785dc4a0ba89686e9baa85e470e36f37f26444d",
          "transactionIndex": "0x4",
          "logIndex": "0xd",
          "removed": false
        },
        {
          "address": "0x0000000000000000000000000000000000001010",
          "topics": [
            "0x4dfe1bbbcf077ddc3e01291eea2d5c70c2b422b415d95645b9adcfd678cb1d63",
            "0x0000000000000000000000000000000000000000000000000000000000001010",
            "0x000000000000000000000000c5a5f537d8861143efa4dd1585b44a90c3de1953",
            "0x0000000000000000000000004ad84f7014b7b44f723f284a85b1662337971439"
          ],
          "data": "0x0000000000000000000000000000000000000000000000000012b683780aa9e000000000000000000000000000000000000000000000000001c306acd40293a700000000000000000000000000000000000000000000046f18b50f2fa398132600000000000000000000000000000000000000000000000001b050295bf7e9c700000000000000000000000000000000000000000000046f18c7c5b31ba2bd06",
          "blockHash": "0x1e86c341b0b692c6840479cef584f76ca4b019d225febcb35d07cf2bc78c6537",
          "blockNumber": "0xe9d896",
          "transactionHash": "0xbfb6f0f0f19b49aefb377008e785dc4a0ba89686e9baa85e470e36f37f26444d",
          "transactionIndex": "0x4",
          "logIndex": "0xe",
          "removed": false
        }
      ],
      "logsBloom": "0x0000000000000000000000000000000000080000000000000000000000000200000000000000000004000000000000000000a00000000000000000000040000000000000000000000000000800000080000000000000000000010200100000000000000002000000000000000000080000000000000000008000001000000000000000000000000000000000000000000000000000040000000000000000200020000000000000002000000000000000200000000000000000000000000000c000000002000010000001000000000000000000000000000000100000000020000000000000000000200000000000008000000000000000000000000000100000",
      "type": "0x2",
      "transactionHash": "0xbfb6f0f0f19b49aefb377008e785dc4a0ba89686e9baa85e470e36f37f26444d",
      "transactionIndex": "0x4",
      "blockHash": "0x1e86c341b0b692c6840479cef584f76ca4b019d225febcb35d07cf2bc78c6537",
      "blockNumber": "0xe9d896",
      "gasUsed": "0x13fca",
      "effectiveGasPrice": "0xefaf0523f",
      "from": "0xc5a5f537d8861143efa4dd1585b44a90c3de1953",
      "to": "0xffa18ca502ce2768b082bb5a41157bd9b7f24ba2",
      "contractAddress": null
    },
    {
      "status": "0x1",
      "cumulativeGasUsed": "0x77ebc",
      "logs": [
        {
          "address": "0xffa18ca502ce2768b082bb5a41157bd9b7f24ba2",
          "topics": [
            "0xddf252ad1be2c89b69c2b068fc378daa952ba7f163c4a11628f55a4df523b3ef",
            "0x0000000000000000000000000000000000000000000000000000000000000000",
            "0x000000000000000000000000c5a5f537d8861143efa4dd1585b44a90c3de1953",
            "0x0000000000000000000000000000000000000000000000000000000000000015"
          ],
          "data": "0x",
          "blockHash": "0x1e86c341b0b692c6840479cef584f76ca4b019d225febcb35d07cf2bc78c6537",
          "blockNumber": "0xe9d896",
          "transactionHash": "0x592cd56e324fe3f1831cfc22360a3cd10bac2d77aad4f20a025d452b7a685fa2",
          "transactionIndex": "0x5",
          "logIndex": "0xf",
          "removed": false
        },
        {
          "address": "0xffa18ca502ce2768b082bb5a41157bd9b7f24ba2",
          "topics": [
            "0xf8e1a15aba9398e019f0b49df1a4fde98ee17ae345cb5f6b5e2c27f5033e8ce7"
          ],
          "data": "0x0000000000000000000000000000000000000000000000000000000000000015",
          "blockHash": "0x1e86c341b0b692c6840479cef584f76ca4b019d225febcb35d07cf2bc78c6537",
          "blockNumber": "0xe9d896",
          "transactionHash": "0x592cd56e324fe3f1831cfc22360a3cd10bac2d77aad4f20a025d452b7a685fa2",
          "transactionIndex": "0x5",
          "logIndex": "0x10",
          "removed": false
        },
        {
          "address": "0x0000000000000000000000000000000000001010",
          "topics": [
            "0x4dfe1bbbcf077ddc3e01291eea2d5c70c2b422b415d95645b9adcfd678cb1d63",
            "0x0000000000000000000000000000000000000000000000000000000000001010",
            "0x000000000000000000000000c5a5f537d8861143efa4dd1585b44a90c3de1953",
            "0x0000000000000000000000004ad84f7014b7b44f723f284a85b1662337971439"
          ],
          "data": "0x0000000000000000000000000000000000000000000000000012b683780aa9e000000000000000000000000000000000000000000000000001b050295be52cf100000000000000000000000000000000000000000000046f18c7c5b31ba2bd06000000000000000000000000000000000000000000000000019d99a5e3da831100000000000000000000000000000000000000000000046f18da7c3693ad66e6",
          "blockHash": "0x1e86c341b0b692c6840479cef584f76ca4b019d225febcb35d07cf2bc78c6537",
          "blockNumber": "0xe9d896",
          "transactionHash": "0x592cd56e324fe3f1831cfc22360a3cd10bac2d77aad4f20a025d452b7a685fa2",
          "transactionIndex": "0x5",
          "logIndex": "0x11",
          "removed": false
        }
      ],
      "logsBloom": "0x0000000000000000000000000000000000080000000000000000000000000200000000000000000004000000000000000000800000000000000000000040000000100000000000000000000800000080000000000000000000010200100000000000000002000000000000000000080000000000000000008000001000000000000000000000000000000000000000000000000000000000000000000000200020000000000000000000000001000000200000000000000000000000000000c000000002000010000001000000000000000000000000000000100000000020002000000000000000200000000000008000000000000000000000000000100000",
      "type": "0x2",
      "transactionHash": "0x592cd56e324fe3f1831cfc22360a3cd10bac2d77aad4f20a025d452b7a685fa2",
      "transactionIndex": "0x5",
      "blockHash": "0x1e86c341b0b692c6840479cef584f76ca4b019d225febcb35d07cf2bc78c6537",
      "blockNumber": "0xe9d896",
      "gasUsed": "0x13fca",
      "effectiveGasPrice": "0xefaf0523f",
      "from": "0xc5a5f537d8861143efa4dd1585b44a90c3de1953",
      "to": "0xffa18ca502ce2768b082bb5a41157bd9b7f24ba2",
      "contractAddress": null
    },
    {
      "status": "0x1",
      "cumulativeGasUsed": "0x8be86",
      "logs": [
        {
          "address": "0xffa18ca502ce2768b082bb5a41157bd9b7f24ba2",
          "topics": [
            "0xddf252ad1be2c89b69c2b068fc378daa952ba7f163c4a11628f55a4df523b3ef",
            "0x0000000000000000000000000000000000000000000000000000000000000000",
            "0x000000000000000000000000c5a5f537d8861143efa4dd1585b44a90c3de1953",
            "0x0000000000000000000000000000000000000000000000000000000000000016"
          ],
          "data": "0x",
          "blockHash": "0x1e86c341b0b692c6840479cef584f76ca4b019d225febcb35d07cf2bc78c6537",
          "blockNumber": "0xe9d896",
          "transactionHash": "0x7dc1bbc4fada14c0fba584ce497213b3012b0975a4537394c383a5440bc55a5a",
          "transactionIndex": "0x6",
          "logIndex": "0x12",
          "removed": false
        },
        {
          "address": "0xffa18ca502ce2768b082bb5a41157bd9b7f24ba2",
          "topics": [
            "0xf8e1a15aba9398e019f0b49df1a4fde98ee17ae345cb5f6b5e2c27f5033e8ce7"
          ],
          "data": "0x0000000000000000000000000000000000000000000000000000000000000016",
          "blockHash": "0x1e86c341b0b692c6840479cef584f76ca4b019d225febcb35d07cf2bc78c6537",
          "blockNumber": "0xe9d896",
          "transactionHash": "0x7dc1bbc4fada14c0fba584ce497213b3012b0975a4537394c383a5440bc55a5a",
          "transactionIndex": "0x6",
          "logIndex": "0x13",
          "removed": false
        },
        {
          "address": "0x0000000000000000000000000000000000001010",
          "topics": [
            "0x4dfe1bbbcf077ddc3e01291eea2d5c70c2b422b415d95645b9adcfd678cb1d63",
            "0x0000000000000000000000000000000000000000000000000000000000001010",
            "0x000000000000000000000000c5a5f537d8861143efa4dd1585b44a90c3de1953",
            "0x0000000000000000000000004ad84f7014b7b44f723f284a85b1662337971439"
          ],
          "data": "0x0000000000000000000000000000000000000000000000000012b683780aa9e0000000000000000000000000000000000000000000000000019d99a5e3c7c63b00000000000000000000000000000000000000000000046f18da7c3693ad66e6000000000000000000000000000000000000000000000000018ae3226bbd1c5b00000000000000000000000000000000000000000000046f18ed32ba0bb810c6",
          "blockHash": "0x1e86c341b0b692c6840479cef584f76ca4b019d225febcb35d07cf2bc78c6537",
          "blockNumber": "0xe9d896",
          "transactionHash": "0x7dc1bbc4fada14c0fba584ce497213b3012b0975a4537394c383a5440bc55a5a",
          "transactionIndex": "0x6",
          "logIndex": "0x14",
          "removed": false
        }
      ],
      "logsBloom": "0x0000000000000000000000000000000000080000000000000000000000000200000000000000000004000000000000000000800000000000000000000040000000000000000000080000000800000080000000000000000000010200100000000000000002000000000000000000080020000000000000008000001000000000000000000000000000000000000000000000000000000000000000000000200020000000000000000000000000000000200000000000000000000000000000c000000002000010000001000000000000000000000000000000100000000020000000000000000000200000000000008000000000000000000008000000100000",
      "type": "0x2",
      "transactionHash": "0x7dc1bbc4fada14c0fba584ce497213b3012b0975a4537394c383a5440bc55a5a",
      "transactionIndex": "0x6",
      "blockHash": "0x1e86c341b0b692c6840479cef584f76ca4b019d225febcb35d07cf2bc78c6537",
      "blockNumber": "0xe9d896",
      "gasUsed": "0x13fca",
      "effectiveGasPrice": "0xefaf0523f",
      "from": "0xc5a5f537d8861143efa4dd1585b44a90c3de1953",
      "to": "0xffa18ca502ce2768b082bb5a41157bd9b7f24ba2",
      "contractAddress": null
    }
  ],
  "libraries": [],
  "pending": [],
  "returns": {},
  "timestamp": 1733564765,
  "chain": 80002,
  "commit": "0901f267"
}